:100000000C9463000C948B000C948B000C945004A3
:100010000C9450040C9450040C948B000C948B00A2
:100020000C948B000C948B000C948B000C948B0024
:100030000C948B000C948B000C948B000C948B0014
:100040000C9406040C948B000C948E020C946802A1
:100050000C948B000C948B000C948B000C948B00F4
:100060000C948B000C948B0000000008000201002F
:100070000003040700000000000000000000000072
:10008000250028002B000000000023002600290086
:1000900000000000240027002A00010204081020AC
:1000A000408001020408102001020408102004040A
:1000B0000404040404040202020202020303030310
:1000C0000303160CFD0B11241FBECFEFD8E0DEBFDB
:1000D000CDBF11E0A0E0B1E0EAE1F0E202C005909E
:1000E0000D92AC3CB107D9F723E0ACECB1E001C014
:1000F0001D92AF34B207E1F710E0C2E6D0E004C0D1
:100100002197FE010E94C80EC136D107C9F70E948F
:10011000D00A0C9400100C940000CF92DF92EF9262
:10012000FF920F931F93CF93DF936C017A018B01A2
:10013000C0E0D0E0CE15DF0589F0D8016D918D01CA
:10014000D601ED91FC910190F081E02DC601099559
:10015000892B11F47E0102C02196ECCFC701DF91FB
:10016000CF911F910F91FF90EF90DF90CF90089566
:10017000FC01538D448D252F30E0842F90E0821BAD
:10018000930B541710F0CF96089501970895FC0132
:10019000918D828D981761F0828DDF01A80FB11DBE
:1001A0005D968C91928D9F5F9F73928F90E00895E2
:1001B0008FEF9FEF0895FC01918D828D981731F09C
:1001C000828DE80FF11D858D90E008958FEF9FEFF0
:1001D0000895FC01918D228D892F90E0805C9F4FC6
:1001E000821B91098F739927089589E192E00E94FB
:1001F000E90021E0892B09F420E0822F0895FC0119
:10020000848DDF01A80FB11DA35ABF4F2C91848D9F
:1002100090E001968F739927848FA689B7892C93D4
:10022000A089B1898C9180648C93938D848D98136F
:1002300006C00288F389E02D80818F7D8083089538
:10024000EF92FF920F931F93CF93DF93EC0181E026
:10025000888F9B8D8C8D981305C0E889F9898081E2
:1002600085FD24C0F62E0B8D10E00F5F1F4F0F731E
:100270001127E02E8C8DE8120CC00FB607FCFACFC8
:10028000E889F989808185FFF5CFCE010E94FF00C2
:10029000F1CF8B8DFE01E80FF11DE35AFF4FF08285
:1002A0000B8FEA89FB898081806207C0EE89FF8914
:1002B0006083E889F98980818064808381E090E0AF
:1002C000DF91CF911F910F91FF90EF900895CF9301
:1002D000DF93EC01888D8823C9F0EA89FB8980814E
:1002E00085FD05C0A889B9898C9186FD0FC00FB620
:1002F00007FCF5CF808185FFF2CFA889B9898C9161
:1003000085FFEDCFCE010E94FF00E7CFDF91CF91B7
:10031000089580E090E0892B29F00E94F50081117A
:100320000C9400000895833081F028F4813099F016
:100330008230A1F008958730A9F08830B9F0843078
:10034000D1F4809180008F7D03C0809180008F77F1
:1003500080938000089584B58F7702C084B58F7D27
:1003600084BD08958091B0008F7703C08091B00064
:100370008F7D8093B000089520911702309118026C
:100380002817390771F49091150280911602981779
:1003900041F0E0911502F0E0E453FE4F808190E0DF
:1003A00008958FEF9FEF089508951F93CF93DF93E4
:1003B000DC015C962D913C915D972115310539F456
:1003C00081E090E013969C938E9312973DC05196D6
:1003D000ED91FC91529750969C915097892F809562
:1003E0001FB75E964C915E9741FB772770F941FDF0
:1003F0006095F8944081772311F0492B01C0482380
:100400004083E9012197F1F748E0508160FF02C085
:10041000592B01C058235083E9012197F1F76695C4
:10042000415099F7772321F090818923808303C07D
:100430008081982B90831FBF5C968D919C915D97D6
:100440000197F1F721E030E0C901DF91CF911F91D1
:10045000089520911702309118022817390771F476
:10046000809116022091150290E0805C9F4F821BC4
:10047000910960E470E00E94530E089580E090E0DE
:100480000895209117023091180228173907B9F4FE
:100490009091150280911602981789F0E09115024B
:1004A000F0E0E453FE4F80812091150230E02F5F91
:1004B0003F4F2F7333272093150290E008958FEF5D
:1004C0009FEF0895089580E090E008950E94FB0F4B
:1004D0001F920F920FB60F9211242F933F934F93B9
:1004E0005F936F937F938F939F93AF93BF93EF939C
:1004F000FF9389E192E00E94FF00FF91EF91BF918D
:10050000AF919F918F917F916F915F914F913F91AB
:100510002F910F900FBE0F901F9018951F920F9262
:100520000FB60F9211242F938F939F93EF93FF9306
:10053000E0912902F0912A028081E0912F02F0914E
:10054000300282FD12C09081809132028F5F8F73E2
:1005500020913302821751F0E0913202F0E0E75E21
:10056000FD4F958F8093320201C08081FF91EF9102
:100570009F918F912F910F900FBE0F901F90189504
:10058000CF93DF93282F30E0F901E859FF4F849192
:10059000F901E656FF4FD491F901E255FF4FC4919E
:1005A000CC2391F081110E949301EC2FF0E0EE0F2B
:1005B000FF1FEA57FF4FA591B491EC91ED2381E025
:1005C00090E021F480E002C080E090E0DF91CF91E4
:1005D00008951F93CF93DF93282F30E0F901E85956
:1005E000FF4F8491F901E656FF4FD491F901E2558E
:1005F000FF4FC491CC23C9F0162F81110E949301A3
:10060000EC2FF0E0EE0FFF1FE458FF4FA591B491DF
:100610008FB7F894111105C09C91ED2FE095E92357
:1006200002C0EC91ED2BEC938FBFDF91CF911F9126
:1006300008950F931F93CF936091CB027091CC02DA
:100640008091CD029091CE0220E04CE00E94900774
:1006500005ED12E0C0E0F80121918F014091D30235
:100660004C0F60E070E080E090E80E949007CF5F60
:10067000C43089F76091CB027091CC028091CD0299
:100680009091CE0220E04091D4020E949007809188
:100690000001909101018130910581F0B0F082302C
:1006A000910539F0039789F560E07FEF80E090E0F5
:1006B00009C060E07FEF8FEF90E004C060E070E081
:1006C0008FEF90E00E94750A20C060E070E0CB01DF
:1006D0000E94750A0E94B50987E391E00E94A7096C
:1006E00060E08091EC020E94E90260E08091ED02FE
:1006F0000E94E90260E08091EE020E94E90260E05F
:100700008091EF020E94E902FFCF0E94B50960913B
:10071000CB027091CC028091CD029091CE022FEF4E
:100720004BE00E949007C0E04091D3024C0F20E0C4
:1007300060E070E080E090E80E949007CF5FC430F6
:1007400099F7CF911F910F910895CF93DF9390E088
:10075000FC01E656FF4F2491FC01E255FF4F8491C6
:10076000882361F190E0880F991FFC01E057FF4F4B
:10077000C591D491FC01E458FF4FA591B49161114A
:1007800009C09FB7F8948881209582238883EC91D3
:100790002E230BC0623061F49FB7F8943881822F0A
:1007A000809583238883EC912E2B2C939FBF06C0CA
:1007B0008FB7F894E8812E2B28838FBFDF91CF91DC
:1007C00008953FB7F8948091110290911202A09180
:1007D0001302B091140226B5A89B05C02F3F19F053
:1007E0000196A11DB11D3FBFBA2FA92F982F8827B1
:1007F000820F911DA11DB11DBC01CD0142E0660F0C
:10080000771F881F991F4A95D1F708951F920F925D
:100810000FB60F9211242F933F938F939F93AF9313
:10082000BF9380910D0290910E02A0910F02B091A2
:10083000100230910C0223E0230F2D3720F4019693
:10084000A11DB11D05C026E8230F0296A11DB11DF3
:1008500020930C0280930D0290930E02A0930F023E
:10086000B09310028091110290911202A091130294
:10087000B09114020196A11DB11D809311029093B5
:100880001202A0931302B0931402BF91AF919F91F3
:100890008F913F912F910F900FBE0F901F90189541
:1008A0001F920F920FB60F9211242F933F934F93E5
:1008B0005F936F937F938F939F93AF93BF93EF93C8
:1008C000FF93E0911702F0911802309709F451C09C
:1008D000968DA685B785858591FF04C09C91892357
:1008E00029F447C09C91892309F043C0A389B489A6
:1008F0009C918589809589238C9386899789019716
:10090000F1F7608D718DA685B785558538E020E0BB
:10091000CB010197F1F7822F90E095958795282FCD
:100920004C91452309F02068315091F7868D81FD67
:1009300020958091160290E001968F73992730914F
:100940001502381749F0A0911602B0E0A453BE4F2B
:100950002C938093160203C0868D8160868F828DD2
:10096000938D0197F1F7A389B4899C918589892B8F
:100970008C93FF91EF91BF91AF919F918F917F9158
:100980006F915F914F913F912F910F900FBE0F90FC
:100990001F901895E0911702F0911802E817F907D7
:1009A00069F4A389B4899C918589809589238C9366
:1009B000109218021092170281E0089580E00895C5
:1009C000BF92CF92DF92EF92FF920F931F93CF933C
:1009D000DF93B22EC32ED42EE52EF62ED72FC82F9E
:1009E000B92FF801211531054105A0E85A07610525
:1009F00071058105910509F4CAC1215031094109E8
:100A000050486109710981099109A2E00E94860E8E
:100A100009F040F485E0808386E0818389E0828369
:100A200087E084C12B2D3C2D4D2D5E2D6F2D7D2F0C
:100A30008C2F9B2F255031094109504861097109BC
:100A400081099109A3E00E94860E09F040F48BE031
:100A500080838CE081838DE0828385E067C12B2DCC
:100A60003C2D4D2D5E2D6F2D7D2F8C2F9B2F2950D2
:100A70003109410950486109710981099109A3E0CF
:100A80000E94860E09F040F48BE0808385E081832C
:100A90008DE0828386E04AC12B2D3C2D4D2D5E2DAD
:100AA0006F2D7D2F8C2F9B2F2D50310941095048E0
:100AB0006109710981099109A3E00E94860E09F07C
:100AC00040F485E080838CE081838DE082838EE03A
:100AD0002DC12B2D3C2D4D2D5E2D6F2D7D2F8C2F5F
:100AE0009B2F25513109410950486109710981093C
:100AF0009109A3E00E94860E09F020F482E1808330
:100B000083E12EC12B2D3C2D4D2D5E2D6F2D7D2F84
:100B10008C2F9B2F2D5131094109504861097109D2
:100B200081099109A3E00E94860E09F008F472CFB2
:100B30002B2D3C2D4D2D5E2D6F2D7D2F8C2F9B2F22
:100B4000215231094109504861097109810991090E
:100B5000A7E00E94860E91F288F22B2D3C2D4D2DA0
:100B60005E2D6F2D7D2F8C2F9B2F2952310941092E
:100B700050486109710981099109A3E00E94860E1C
:100B800009F020F485E080838EE0EAC02B2D3C2D17
:100B90004D2D5E2D6F2D7D2F8C2F9B2F2D523109CA
:100BA000410950486109710981099109A3E00E9436
:100BB000860E09F020F485E0808386E0D1C02B2DDD
:100BC0003C2D4D2D5E2D6F2D7D2F8C2F9B2F215376
:100BD0003109410950486109710981099109A3E06E
:100BE0000E94860E09F008F46CCF2B2D3C2D4D2D64
:100BF0005E2D6F2D7D2F8C2F9B2F255331094109A1
:100C0000504861097109810991090E94860E09F015
:100C100010F48EE041C02B2D3C2D4D2D5E2D6F2DFF
:100C20007D2F8C2F9B2F2D5331094109504861098D
:100C3000710981099109A7E00E94860E09F008F464
:100C40005DCF2B2D3C2D4D2D5E2D6F2D7D2F8C2FAF
:100C50009B2F2954310941095048610971098109C3
:100C60009109A3E00E94860E09F008F447CF2B2DCE
:100C70003C2D4D2D5E2D6F2D7D2F8C2F9B2F2D54B8
:100C800031094109504861097109810991090E949E
:100C9000860E09F018F485E0808379C02B2D3C2D59
:100CA0004D2D5E2D6F2D7D2F8C2F9B2F21553109C2
:100CB000410950486109710981099109A3E00E9425
:100CC000860E09F008F41ACF2B2D3C2D4D2D5E2DEC
:100CD0006F2D7D2F8C2F9B2F2955310941095048AD
:100CE0006109710981099109A7E00E94860E09F046
:100CF00008F490CE2B2D3C2D4D2D5E2D6F2D7D2F8C
:100D00008C2F9B2F215631094109504861097109E7
:100D100081099109A3E00E94860E09F048F48EE053
:100D200080838FE0818380E1828381E183832FC090
:100D30002B2D3C2D4D2D5E2D6F2D7D2F8C2F9B2F20
:100D40002956310941095048610971098109910900
:100D5000A9E00E94860E09F028F483E0808382E0F7
:100D6000818315C02B2D3C2D4D2D5E2D6F2D7D2F9C
:100D70008C2F9B2F295031094109504C6109710971
:100D800081099109A7E00E94860E39F330F3DF91C3
:100D9000CF911F910F91FF90EF90DF90CF90BF9078
:100DA0000895CF92DF92EF92FF920F931F93CF930C
:100DB000DF93DC01FB0112861386148615862C91C5
:100DC00011969C91119712968C9112972B3051F499
:100DD0009C3021F48D3081F487E00FC08D3061F4B8
:100DE00088E00BC09C3021F08D3031F489E005C0E3
:100DF0008D3011F48AE001C082E081878C918330CC
:100E000049F411968C911197823021F481E0828708
:100E100081E183878D016F018AE0C80ED11CEF014B
:100E20002E96EE24E394F12CF8018081F701E25F25
:100E3000FE4F9081891307C060E00E94A50381E105
:100E40008E0DF6018083FFEFEF1AFF0A85E0E816AA
:100E5000F10451F792E0E92EF12CF8018081F701BD
:100E6000E95FFE4F9081891305C061E00E94A503F0
:100E7000F601E082FFEFEF1AFF0A87E0E816F104BF
:100E800061F70F5F1F4FEFEFCE1ADE0ACC16DD06BB
:100E900041F6DF91CF911F910F91FF90EF90DF907E
:100EA000CF9008958EBD00000DB407FEFDCF8EB526
:100EB00008958F929F92AF92BF92CF92DF92EF925E
:100EC000FF920E94E1034B015C018AE0C82ED12C05
:100ED000E12CF12C0E94E103DC01CB018819990976
:100EE000AA09BB09883E9340A105B10558F021E04D
:100EF000C21AD108E108F10888EE880E83E0981E36
:100F0000A11CB11CC114D104E104F10419F7FF9034
:100F1000EF90DF90CF90BF90AF909F908F9008950B
:100F2000CF92DF92EF92FF920F931F93CF93DF93B5
:100F300000D000D0CDB7DEB7F62EE82E03E413E0E4
:100F400061E0F80183812C834B837A8399830E942B
:100F5000E90283E2C82ED12CF6013197F1F760E067
:100F6000F80183810E94E902F6013197F1F7998136
:100F7000892F0E945207F6013197F1F78E2D0E94BA
:100F80005207F6013197F1F77A81872F0E945207B5
:100F9000F6013197F1F78F2D0E945207F601319734
:100FA000F1F74B81842F0E945207F6013197F1F738
:100FB0002C81822F0E945207C6010197F1F761E050
:100FC000F80183810E94E9028BE891E00197F1F733
:100FD0000F900F900F900F90DF91CF911F910F9175
:100FE000FF90EF90DF90CF900895EF92FF921F93C4
:100FF000CF93DF93EC0188858A3AD1F07E018AE0B5
:10100000E80EF11C10E0F70121917F014885410FA6
:1010100060E070E080E090E80E9490071F5F14306D
:1010200091F7688179818A819B8120E049850EC092
:101030002C854DE060E070E080E090E80E94900731
:101040002D854EE060E070E080E090E8DF91CF9188
:101050001F91FF90EF900C9490070F931F93CF93E5
:10106000DF938C0122E141E060E070E080E090E8F5
:101070000E9490070E94590723E145E060E070E07C
:1010800080E090E80E9490070E94590724E149E01F
:1010900060E070E080E090E80E9490070E945907AD
:1010A000F801608171818281938120E043E00E9498
:1010B00090070E945907809147030E94C002892B24
:1010C00019F4C1E0D1E002C0CFEFD0E08091480335
:1010D0000E94C002892B11F4DF5FC5E080914903B3
:1010E0000E94C002892B11F4DF5FC9E0D13009F002
:1010F000CFEFF801608171818281938120E044E02B
:101100000E9490070E94590720E041E060E070E0F3
:1011100080E090E80E9490070E94590720E045E097
:1011200060E070E080E090E80E9490070E9459071C
:1011300020E049E060E070E080E090E80E949007E5
:101140000E945907F80180858A3A21F0C08781E022
:10115000CF3F09F080E0DF91CF911F910F9108956B
:101160000F931F93CF938C01FC0160817181828169
:10117000938120E041E00E949007C0E0F8014085A3
:101180004C0F20E060E070E080E090E80E94900763
:10119000CF5FC43099F7CF911F910F9108950097B9
:1011A00069F0FC0101900020E9F73197AF01481B7D
:1011B000590BBC0189E192E00C948D0080E090E035
:1011C00008959B01AC0110922E0310922D031092F2
:1011D0002C0310922B0310922A031092290360E033
:1011E00079E08DE390E00E94670EF901243031052B
:1011F00018F0C901039702C081E090E0909330039A
:1012000080932F0390911F03963108F075C0B901A8
:10121000769567956431710518F06351710902C0C4
:1012200061E070E070932A0360932903369720F001
:10123000B9016550710902C061E070E070932C0340
:1012400060932B03B901660F771F260F371F369562
:101250002795369527952D30310518F02C503109FA
:1012600002C021E030E030932E0320932D03209123
:101270006800983050F031E09E3008F430E081E0B2
:1012800001C0880F3A95EAF701C084E0822B809371
:101290006800983038F09E3040F0963148F020E0F9
:1012A00030E008C02DE630E005C02BE630E002C09B
:1012B0002CE630E03093270320932603983030F457
:1012C00081E001C0880F9A95EAF70EC0292F30E01F
:1012D0009E3018F42850310902C02E50310981E0A7
:1012E00001C0880F2A95EAF78093280380912F0385
:1012F000909130030197F1F780912D0390912E0387
:10130000892B21F1809117029091180223E08331FB
:101310009207E1F0009711F00E94CA048091310316
:101320008E7F80933103109216021092150283E192
:1013300093E09093180280931702E0912603F091B6
:101340002703908180912803892B80830895CF9370
:10135000DF930E94CF08EC0183EB91E00E94CF085D
:101360008C0F9D1FDF91CF9108950F931F93CF9303
:10137000DF93CDB7DEB729970FB6F894DEBF0FBE67
:10138000CDBF8091BE029091BF02892B09F4A2C00B
:101390000E94E1030091C4021091C5022091C6028F
:1013A0003091C702DC01CB01801B910BA20BB30B68
:1013B0008C329140A105B10558F3F8948091BA029E
:1013C0009091BB029A838983E091BE02F091BF02A3
:1013D000DF011196808189879091B602E091C80261
:1013E000F091C9028091CA02992309F42EC090811C
:1013F000982B98879081809589238F838F818C8308
:1014000088E08B8358856F8149853B812C81898158
:101410009A81508347FD252F3A952083262F39F056
:10142000441F00C000006083000000C0F2CF38E01D
:101430004D9160830000019761F7F093C902E0933A
:10144000C80249873B832C8338C09081982B9887AA
:101450009081809589238F838F818E8388E08D830F
:1014600058856F8149853D812E8189819A8150837C
:1014700047FD252F00C000C0208300C000C000C071
:1014800000C000C060830000262F3A9541F0441F41
:10149000000000C000C000C000C000C0E8CF38E0BD
:1014A0004D9100C0608300C0019709F7F093C90215
:1014B000E093C80249873D832E839A838983789479
:1014C0000E94E1036093C4027093C5028093C60238
:1014D0009093C70229960FB6F894DEBF0FBECDBF1A
:1014E000DF91CF911F910F910895CF92DF92EF92EC
:1014F000FF920F931F932091B8023091B902232BD2
:1015000009F447C06C01EE24FF24FC2D072F182F8F
:10151000292F3327E02F562F4091BD02442361F03D
:10152000C49E60011124FD2D049F80011124E12F30
:10153000649F90011124532FA091C302B091C00267
:101540002091BE023091BF02AB1789F0C92EDD2475
:10155000EE24FF24C9018A0F911DDC01442329F0E8
:10156000C49EB0011124672F01C06C2D6C93809133
:10157000C002D901A80FB11DFC938091C102D9010D
:10158000A80FB11DEC938091C202F901E80FF11D83
:1015900050831F910F91FF90EF90DF90CF900895AF
:1015A000789484B5826084BD84B5816084BD85B53E
:1015B000826085BD85B5816085BD80916E0081604A
:1015C00080936E00109281008091810082608093F0
:1015D00081008091810081608093810080918000F2
:1015E0008160809380008091B10084608093B1001D
:1015F0008091B00081608093B00080917A00846017
:1016000080937A0080917A00826080937A00809142
:101610007A00816080937A0080917A00806880935C
:101620007A001092C100E0912902F0912A0282E032
:101630008083E0912502F09126021082E09127023A
:10164000F09128028FEC808310923102E0912D02FC
:10165000F0912E0286E08083E0912B02F0912C0223
:10166000808180618083E0912B02F0912C02808147
:1016700088608083E0912B02F0912C028081806849
:101680008083E0912B02F0912C0280818F7D8083FA
:101690008CE391E00E94A70960E875E280E090E0A9
:1016A0000E94E10881EF92E00E942D08882319F042
:1016B00087E491E00EC06CE271E080E090E00E946F
:1016C000E10882E093E00E942D08882341F086E53E
:1016D00091E00E94A70980E090E00E9400108BEC4E
:1016E00092E00E942D08882319F08CE691E0F1CF5A
:1016F0008091BC0287FD08C061E00E94A50360E004
:101700008091BC020E94E90281E08093B7020E94AE
:10171000B5090E94190361E08091EC020E94A503C3
:1017200061E08091ED020E94A50361E08091EE02EC
:101730000E94A50361E08091EF020E94A5038FE75C
:1017400091E00E94CF088FE891E00E94CF0882EAE2
:1017500091E00E94CF0860E875E280E090E00E948E
:10176000E10881EF92E00E94F5078FE891E00E9486
:10177000CF0881EF92E00E94B0086CE271E080E057
:1017800090E00E94E10882E093E00E94F50783E187
:1017900093E00E942902892B49F183E193E00E94A2
:1017A0004102C82F86EB91E00E94CF08E091190218
:1017B000F0911A020190F081E02D6C2F89E192E006
:1017C000099583EB91E00E94CF08C13479F487EC4E
:1017D00091E00E94A7098091000190910101019779
:1017E00090930101809300010E94190382E093E02D
:1017F0000E94B0080E948901AECF8091BE029091F4
:10180000BF02009711F00E94630F8091BC0287FD18
:1018100003C060E00E94A50389E291E09093140365
:101820008093130383E193E00C94CA04EF920F9327
:101830001F93CF93DF9310921C0210921B0288EE2D
:1018400093E0A0E0B0E080931D0290931E02A0936D
:101850001F02B093200287E191E090931A028093D7
:10186000190285EC90E0909326028093250284EC87
:1018700090E0909328028093270280EC90E0909370
:101880002A028093290281EC90E090932C028093AD
:101890002B0282EC90E090932E0280932D0286EC36
:1018A00090E09093300280932F02109232021092B7
:1018B000330210923402109235028BE0809343037E
:1018C0008CE0809344038DE0809345038AE080930D
:1018D00046038EE0809347038FE08093480380E1C6
:1018E0008093490360E08EE00E94A50360E0809150
:1018F00048030E94A50360E0809149030E94A5036C
:1019000061E0809146030E94A5038CB58C7F8CBD5D
:101910008DB581608DBD8CB5837F8CBDCFB7F894BC
:1019200080914A03811127C0E8EBF0E08491E4EA5A
:10193000F0E09491E82FF0E0EE0FFF1FE057FF4F2B
:10194000A591B491EC91E92321F461E08AE00E9431
:10195000E90261E08AE00E94A5038CB580618CBD3C
:101960008CB580648CBD61E08DE00E94A50361E0D0
:101970008BE00E94A50380914A038F5F80934A0306
:10198000CFBF61E0809146030E94E9028AE680931E
:101990003203109233031092340380E880933503AE
:1019A00010923603109237031092380310923903C5
:1019B000EE24E39400E413E02AE630E040E050E84F
:1019C00060E070E080E090E00E94E00462E373E099
:1019D000C8010E94D106D0914003C09141031092EA
:1019E00016031092150388EE93E0A0E0B0E0809318
:1019F000170390931803A0931903B0931A0389E275
:101A000091E0909314038093130310922A03109291
:101A1000290310922C0310922B0310922E03109284
:101A20002D031092300310922F03609131036E7FCB
:101A30006D7F609331036695617081E068278D2F1B
:101A40000E94E90261E08D2F0E94A5038D2F90E096
:101A5000FC01E656FF4FE491E0932303FC01E255BD
:101A6000FF4FE491F0E0EE0FFF1FE458FF4F859128
:101A70009491909325038093240360E08C2F0E941F
:101A8000A5038091310381FD04C061E08C2F0E9489
:101A9000E902C0931F038C2F90E0FC01E656FF4F34
:101AA000E491E0932003FC01E255FF4FE491F0E064
:101AB000EE0FFF1FEA57FF4F8591949190932203F9
:101AC000809321038DE6809302031092030310920A
:101AD0000403C0E8C09305031092060310920703A5
:101AE0001092080310920903E12C00E113E02DE6A7
:101AF00030E040E050E860E070E080E090E00E947C
:101B0000E00462E073E0C8010E94D1068DE080939A
:101B1000F1021092F2021092F30280EC8093F40230
:101B20001092F5021092F6021092F7021092F8024B
:101B30000FEF12E02DE030E040E050EC60E070E0AC
:101B400080E090E00E94E00461EF72E0C8010E9432
:101B5000D10689E58093DE021092DF021092E00246
:101B6000C093E1021092E2021092E3021092E402AA
:101B70001092E5020CEE12E029E530E040E050E87A
:101B800060E070E080E090E00E94E0046EED72E0C2
:101B9000C8010E94D1068DE58093CB021092CC0241
:101BA0001092CD02C093CE021092CF021092D002BA
:101BB0001092D1021092D20209ED12E02DE530E030
:101BC00040E050E860E070E080E090E00E94E004D7
:101BD0006BEC72E0C8010E94D106C091D90210924C
:101BE000B7021092BD021092C4021092C502109268
:101BF000C6021092C70281E08093C3028093C002A4
:101C00001092C10292E09093C2028093B60283E0E8
:101C100090E09093BB028093BA020E94CE0E909304
:101C2000BF028093BE02009759F0FC01108211821E
:101C3000128281E090E09093B9028093B80208C0CC
:101C40001092BB021092BA021092B9021092B8021E
:101C5000C093BC028091B702882341F061E08C2FD1
:101C60000E94A50360E08C2F0E94E9028C2F90E077
:101C7000FC01E255FF4FE491F0E0EE0FFF1FE45846
:101C8000FF4F259134913093C9022093C802FC0183
:101C9000E656FF4FE491E093CA02DF91CF911F9186
:101CA0000F91EF90089597FB072E16F4009407D03C
:101CB00077FD09D00E94920E07FC05D03EF4909566
:101CC00081959F4F0895709561957F4F0895052EDA
:101CD00097FB1EF400940E947E0E57FD07D00E94D1
:101CE000A60E07FC03D04EF40C947E0E5095409542
:101CF000309521953F4F4F4F5F4F089590958095B8
:101D0000709561957F4F8F4F9F4F08950024A7FDD9
:101D100000942A17300540055005600570058005C0
:101D200090050895AA1BBB1B51E107C0AA1FBB1F4A
:101D3000A617B70710F0A61BB70B881F991F5A9557
:101D4000A9F780959095BC01CD010895A1E21A2EC6
:101D5000AA1BBB1BFD010DC0AA1FBB1FEE1FFF1F4F
:101D6000A217B307E407F50720F0A21BB30BE40B9F
:101D7000F50B661F771F881F991F1A9469F76095E6
:101D80007095809590959B01AC01BD01CF010895A0
:101D9000EE0FFF1F0590F491E02D0994CF93DF9390
:101DA0008230910510F482E090E0E0914D03F091D3
:101DB0004E0320E030E0C0E0D0E0309711F14081E8
:101DC000518148175907C0F04817590761F48281BB
:101DD0009381209719F09B838A832BC090934E03A5
:101DE00080934D0326C02115310519F04217530782
:101DF00018F49A01BE01DF01EF010280F381E02DAA
:101E0000DCCF2115310509F1281B390B24303105B0
:101E100090F412968D919C9113976115710521F0A4
:101E2000FB019383828304C090934E0380934D0300
:101E3000FD01329644C0FD01E20FF31F819391939F
:101E4000225031092D933C933AC020914B0330919D
:101E50004C03232B41F42091040130910501309370
:101E60004C0320934B032091020130910301211573
:101E7000310541F42DB73EB740910601509107015D
:101E8000241B350BE0914B03F0914C03E217F30751
:101E9000A0F42E1B3F0B2817390778F0AC014E5FDA
:101EA0005F4F2417350748F04E0F5F1F50934C03C8
:101EB00040934B038193919302C0E0E0F0E0CF01A7
:101EC000DF91CF9108950F931F93CF93DF930097E6
:101ED00009F48CC0FC0132971382128200914D03E9
:101EE00010914E030115110581F420813181820F7B
:101EF000931F20914B0330914C032817390779F534
:101F0000F0934C03E0934B0371C0D80140E050E0E4
:101F1000AE17BF0750F412962D913C911397AD0167
:101F20002115310509F1D901F3CF9D01DA01338380
:101F3000228360817181860F971F8217930769F44E
:101F4000EC0128813981260F371F2E5F3F4F3183E7
:101F500020838A819B8193838283452B29F4F0938C
:101F60004E03E0934D0342C01396FC93EE931297F9
:101F7000ED01499159919E01240F351FE217F30796
:101F800071F480819181840F951F029611969C9324
:101F90008E938281938113969C938E931297E0E0A7
:101FA000F0E0D80112968D919C911397009719F04B
:101FB000F8018C01F6CF8D919C9198012E5F3F4FD7
:101FC000820F931F20914B0330914C032817390740
:101FD00069F4309729F410924E0310924D0302C019
:101FE0001382128210934C0300934B03DF91CF9125
:101FF0001F910F91089581E090E0F8940C940010E7
:1020000010E0C2E6D0E004C0FE010E94C80E219696
:10201000C336D107C9F7F894FFCF030000004F0380
:102020008000030506090708020E0F1011000000CA
:102030000020018D00B8006701E900C700DB000047
:10204000000000D5018D006302D40129024102BCC9
:102050000173746F700048656C6C6F2052324432AB
:10206000006E6F7420666F756E6420524E343200BD
:102070006E6F7420666F756E6420495220726563BE
:102080006569766572006E6F7420666F756E642088
:102090004E656F506978656C00537461727420529C
:1020A0004E34322E2E2E0D0A00436F6E6E65637411
:1020B0002077697265732E2E2E0D0A0052656164B9
:1020C0007920746F20636F6E6E656374210D0A0052
:1020D0002A2A2A20726561642064617461203D208F
:1020E000006869740000FFFFFFFFFFFFFFFFFFFFB5
:1020F000FFFFFFFFFFFFFFFFFFFFFFFFFFFFFFFFF0
:102100007920746F20636F6E6E656374210D0A0011
:102110002A2A2A20726561642064617461203D204E
:10212000006869740000FFFFFFFFFFFFFFFFFFFF74
:10213000FFFFFFFFFFFFFFFFFFFFFFFFFFFFFFFFAF
:10214000FFFFFFFFFFFFFFFFFFFFFFFFFFFFFFFF9F
:10215000FFFFFFFFFFFFFFFFFFFFFFFFFFFFFFFF8F
:10216000FFFFFFFFFFFFFFFFFFFFFFFFFFFFFFFF7F
:10217000FFFFFFFFFFFFFFFFFFFFFFFFFFFFFFFF6F
:102180001397009719F0F8018C01F6CF8D919C916F
:1021900098012E5F3F4F820F931F2091D9033091FA
:1021A000DA032817390769F4309729F41092DC0311
:1021B0001092DB0302C0138212821093DA030093A1
:1021C000D903DF91CF911F910F91089581E090E0A5
:1021D000F8940C94EB1010E0C2E6D0E004C0FE01CD
:1021E0000E94B30F2196C336D107C9F7F894FFCFE9
:1021F00003000000DD038000030506090708020E46
:102200000F101100000000A600E0064C01A500FA26
:102210000012018D00000000007307E0060B07BAF2
:10222000073C071A072E0700000000E607E0064CEF
:10223000014B01E607E607E60700000000E607E0BD
:10224000064C014B0173746F700048656C6C6F2015
:1022500052324432006E6F7420666F756E64205285
:102260004E3432006E6F7420666F756E6420495272
:10227000207265636569766572006E6F7420666FA3
:10228000756E64204E656F506978656C005374619B
:10229000727420524E34322E2E2E0D0A00436F6E71
:1022A0006E6563742077697265732E2E2E0D0A0099
:1022B000526561647920746F20636F6E6E6563741C
:1022C000210D0A00676F2066726F6E7400676F20C1
:1022D0006261636B007475726E206C656674007465
:1022E00075726E207269676874002A2A2A207265E6
:1022F00061642064617461203D200068697400009D
:10230000006869740000FFFFFFFFFFFFFFFFFFFF92
:10231000FFFFFFFFFFFFFFFFFFFFFFFFFFFFFFFFCD
:10232000FFFFFFFFFFFFFFFFFFFFFFFFFFFFFFFFBD
:10233000FFFFFFFFFFFFFFFFFFFFFFFFFFFFFFFFAD
:10234000FFFFFFFFFFFFFFFFFFFFFFFFFFFFFFFF9D
:10235000FFFFFFFFFFFFFFFFFFFFFFFFFFFFFFFF8D
:10236000FFFFFFFFFFFFFFFFFFFFFFFFFFFFFFFF7D
:10237000FFFFFFFFFFFFFFFFFFFFFFFFFFFFFFFF6D
:1023800039F0B93FCCF3869577956795B395D9F732
:102390003EF490958095709561957F4F8F4F9F4F3C
:1023A0000895E89409C097FB3EF490958095709548
:1023B00061957F4F8F4F9F4F9923A9F0F92F96E991
:1023C000BB279395F695879577956795B795F11106
:1023D000F8CFFAF4BB0F11F460FF1BC06F5F7F4FA3
:1023E0008F4F9F4F16C0882311F096E911C07723B5
:1023F00021F09EE8872F762F05C0662371F096E8BE
:10240000862F70E060E02AF09A95660F771F881F8C
:10241000DAF7880F9695879597F90895990F000830
:10242000550FAA0BE0E8FEEF16161706E807F907A6
:10243000C0F012161306E407F50798F0621B730B41
:10244000840B950B39F40A2661F0232B242B252BC2
:1024500021F408950A2609F4A140A6958FEF811D65
:10246000811D089597F99F6780E870E060E0089506
:102470009FEF80EC089500240A941616170618069C
:102480000906089500240A94121613061406050678
:102490000895092E0394000C11F4882352F0BB0F09
:1024A00040F4BF2B11F460FF04C06F5F7F4F8F4F6C
:1024B0009F4F089557FD9058440F551F59F05F3FA7
:1024C00071F04795880F97FB991F61F09F3F79F056
:1024D00087950895121613061406551FF2CF4695D8
:1024E000F1DF08C0161617061806991FF1CF86955A
:1024F0007105610508940895E894BB27662777273E
:10250000CB0197F908950E940E1208F48FEF0895F9
:102510000E949B120C9449120E943B1238F00E94B8
:10252000421220F0952311F00C9432120C943812C0
:1025300011240C947D120E945A1270F3959FC1F3DE
:10254000950F50E0551F629FF001729FBB27F00D61
:10255000B11D639FAA27F00DB11DAA1F649F6627B6
:10256000B00DA11D661F829F2227B00DA11D621F05
:10257000739FB00DA11D621F839FA00D611D221FBF
:10258000749F3327A00D611D231F849F600D211DA3
:10259000822F762F6A2F11249F5750409AF0F1F026
:1025A00088234AF0EE0FFF1FBB1F661F771F881F8F
:1025B00091505040A9F79E3F510580F00C94321283
:1025C0000C947D125F3FE4F3983ED4F386957795A3
:1025D0006795B795F795E7959F5FC1F7FE2B880F35
:1025E000911D9695879597F9089581E090E0F8946C
:1025F0000C94FA12F894FFCF00080009000A000BAF
:10260000000C010C010D010E010F01100010000063
:10261000000000004E01CA001701F50009019501F4
:10262000000000004F021F0217020302F401F30131
:102630000D0A0000FFFFFFFFFFFFFFFFFFFFFFFF8F
:10264000FFFFFFFFFFFFFFFFFFFFFFFFFFFFFFFF9A
:10265000FFFFFFFFFFFFFFFFFFFFFFFFFFFFFFFF8A
:10266000FFFFFFFFFFFFFFFFFFFFFFFFFFFFFFFF7A
:10267000FFFFFFFFFFFFFFFFFFFFFFFFFFFFFFFF6A
:1026800000240A9416161706180609060895002451
:102690000A9412161306140605060895092E0394CB
:1026A000000C11F4882352F0BB0F40F4BF2B11F43F
:1026B00060FF04C06F5F7F4F8F4F9F4F089557FD9E
:1026C0009058440F551F59F05F3F71F04795880FA0
:1026D00097FB991F61F09F3F79F087950895121637
:1026E00013061406551FF2CF4695F1DF08C01616E3
:1026F00017061806991FF1CF869571056105089494
:102700000895E894BB2766277727CB0197F90895AA
:102710000E949B130C944E130E94401338F00E94A9
:10272000471320F0952311F00C9437130C943D13AC
:1027300011240C9482130E945F1370F3959FC1F3D0
:10274000950F50E0551F629FF001729FBB27F00D5F
:10275000B11D639FAA27F00DB11DAA1F649F6627B4
:10276000B00DA11D661F829F2227B00DA11D621F03
:10277000739FB00DA11D621F839FA00D611D221FBD
:10278000749F3327A00D611D231F849F600D211DA1
:10279000822F762F6A2F11249F5750409AF0F1F024
:1027A00088234AF0EE0FFF1FBB1F661F771F881F8D
:1027B00091505040A9F79E3F510580F00C9437137B
:1027C0000C9482135F3FE4F3983ED4F3869577959B
:1027D0006795B795F795E7959F5FC1F7FE2B880F33
:1027E000911D9695879597F9089581E090E0F8946A
:1027F0000C94D216AEE0B0E0E0E0F4E10C94A9163F
:102800000D891E8986E08C831A8309838FEF9FE7E9
:102810009E838D83AE01475E5F4F6F89788DCE01B9
:1028200001960E941D142F813885F801E20FF31FD5
:1028300010822E96E4E00C94C516ACE0B0E0E3E222
:10284000F4E10C949B167C016B018A01FC01178258
:102850001682838181FFBDC1CE0101964C01F70133
:102860009381F60193FD859193FF81916F018823F8
:1028700009F4ABC1853239F493FD859193FF8191C1
:102880006F01853229F4B70190E00E940516E7CF69
:10289000512C312C20E02032A0F48B3269F030F43E
:1028A000803259F0833269F420612CC08D3239F0C6
:1028B000803339F4216026C02260246023C0286060
:1028C00021C027FD27C030ED380F3A3078F426FFBD
:1028D00006C0FAE05F9E300D1124532E13C08AE02B
:1028E000389E300D1124332E20620CC08E3221F41C
:1028F00026FD6BC1206406C08C3611F4206802C02E
:10290000883641F4F60193FD859193FF81916F0123
:102910008111C1CF982F9F7D9554933028F40C5F7F
:102920001F4FFFE3F9830DC0833631F0833771F019
:10293000833509F05BC022C0F801808189830E5F76
:102940001F4F44244394512C540115C03801F2E028
:102950006F0E711CF801A080B18026FF03C0652DA9
:1029600070E002C06FEF7FEFC5012C870E94FA155F
:102970002C0183012C852F77222E17C03801F2E01D
:102980006F0E711CF801A080B18026FF03C0652D79
:1029900070E002C06FEF7FEFC5012C870E94EF153A
:1029A0002C012C852068222E830123FC1BC0832D43
:1029B00090E048165906B0F4B70180E290E00E941A
:1029C00005163A94F4CFF50127FC859127FE8191F5
:1029D0005F01B70190E00E94051631103A94F1E0D2
:1029E0004F1A51084114510471F7E5C0843611F0B3
:1029F000893639F5F80127FF07C06081718182812E
:102A000093810C5F1F4F08C060817181072E000CFD
:102A1000880B990B0E5F1F4F2F76722E97FF09C000
:102A200090958095709561957F4F8F4F9F4F20684F
:102A3000722E2AE030E0A4010E943D16A82EA818AC
:102A400044C0853729F42F7EB22E2AE030E025C01D
:102A5000F22FF97FBF2E8F36C1F018F4883579F048
:102A6000B4C0803719F0883721F0AFC02F2F206114
:102A7000B22EB4FE0DC08B2D8460B82E09C024FF89
:102A80000AC09F2F9660B92E06C028E030E005C02E
:102A900020E130E002C020E132E0F801B7FE07C0DB
:102AA00060817181828193810C5F1F4F06C06081BC
:102AB000718180E090E00E5F1F4FA4010E943D16DF
:102AC000A82EA818FB2DFF777F2E76FE0BC0372D82
:102AD0003E7FA51450F474FE0AC072FC08C0372D66
:102AE0003E7E05C0BA2C372D03C0BA2C01C0B52CD0
:102AF00034FF0DC0FE01EA0DF11D8081803311F419
:102B0000397E09C032FF06C0B394B39404C0832F4A
:102B1000867809F0B39433FD13C030FF06C05A2CF9
:102B2000B31418F4530C5B18B32CB31468F4B70146
:102B300080E290E03C870E940516B3943C85F5CF77
:102B4000B31410F43B1801C0312C34FF12C0B7018C
:102B500080E390E03C870E9405163C8532FF17C059
:102B600031FD03C088E790E002C088E590E0B7013E
:102B70000CC0832F867859F031FF02C08BE201C070
:102B800080E237FD8DE2B70190E00E940516A514A2
:102B900038F4B70180E390E00E9405165A94F7CF0D
:102BA000AA94F401EA0DF11D8081B70190E00E9422
:102BB0000516A110F5CF332009F451CEB70180E2FC
:102BC00090E00E9405163A94F6CFF701868197812E
:102BD00002C08FEF9FEF2C96E2E10C94B716FC0138
:102BE0000590615070400110D8F7809590958E0F38
:102BF0009F1F0895FC016150704001900110D8F7AB
:102C0000809590958E0F9F1F08950F931F93CF93DC
:102C1000DF93FB01238121FD03C08FEF9FEF28C0CD
:102C200022FF16C046815781248135814217530700
:102C300044F4A081B1819D012F5F3F4F31832083F8
:102C40008C93268137812F5F3F4F3783268310C0B7
:102C5000EB01092F182F0084F185E02D0995892BB0
:102C6000E1F68E819F8101969F838E83812F902F25
:102C7000DF91CF911F910F910895FA01AA27283073
:102C800051F1203181F1E8946F936E7F6E5F7F4F39
:102C90008F4F9F4FAF4FB1E03ED0B4E03CD0670FB5
:102CA000781F891F9A1FA11D680F791F8A1F911D08
:102CB000A11D6A0F711D811D911DA11D20D009F458
:102CC00068943F912AE0269F11243019305D31939A
:102CD000DEF6CF010895462F4770405D4193B3E083
:102CE0000FD0C9F7F6CF462F4F70405D4A3318F02A
:102CF000495D31FD4052419302D0A9F7EACFB4E0DB
:102D0000A6959795879577956795BA95C9F7009792
:102D10006105710508959B01AC010A2E0694579533
:102D2000479537952795BA95C9F7620F731F841F8A
:102D3000951FA01D08952F923F924F925F926F9220
:102D40007F928F929F92AF92BF92CF92DF92EF923B
:102D5000FF920F931F93CF93DF93CDB7DEB7CA1BBC
:102D6000DB0B0FB6F894DEBF0FBECDBF09942A88E7
:102D7000398848885F846E847D848C849B84AA848F
:102D8000B984C884DF80EE80FD800C811B81AA811C
:102D9000B981CE0FD11D0FB6F894DEBF0FBECDBFE7
:102DA000ED010895F894FFCF084000000080F7017E
:102DB0001108000000002A060001D20900000000EE
:102DC0009C04100C6F044D046104E3040000000037
:102DD000980B100C00000000980B100C253032648A
:102DE0002E2530316420430025642E2530316425A2
:102DF00025000D0A0000FFFFFFFFFFFFFFFFFFFFA1
:102E000049198823D1F380E094E00E941619219695
:102E1000C530D10591F7C0E0D0E080E094E00E9499
:102E200049198823D1F380E094E00E941619F70134
:102E300080832196C032D10521F00894E11CF11C59
:102E4000ECCF80E290E0DF91CF911F910F91FF9046
:102E5000EF90089580E094E040E056E960E070E093
:102E60000E941B1808950F931F93CF93DF93FC01CB
:102E7000718976957170A481B5819381772329F04A
:102E80008C91892309F454C004C08C91892309F0E2
:102E90004FC08185928520E001972FEF8F3F9207E9
:102EA000D9F7C385D485A481B581138160E031E071
:102EB00040E050E000E0CE01202F01972FEF8F3F40
:102EC0009207D9F78C91812311F0632B03C0832FD4
:102ED00080956823330F4F5F5F4F4830510559F796
:102EE0008585968520E001972FEF8F3F9207D9F7D0
:102EF00071116095809154042091550490E00196E1
:102F00008F73907030E08217930779F0E09154044A
:102F1000F0E0EC5EFB4F60838091540490E00196FA
:102F20008F7390708093540403C081898160818B7A
:102F3000DF91CF911F910F9108951F920F920FB6BD
:102F40000F9211242F933F934F935F936F937F932F
:102F50008F939F93AF93BF93EF93FF93809112044E
:102F600090911304009711F00E943317FF91EF9195
:102F7000BF91AF919F918F917F916F915F914F9191
:102F80003F912F910F900FBE0F901F9018951F9299
:102F90000F920FB60F9211242F933F934F935F938D
:102FA0006F937F938F939F93AF93BF93EF93FF9311
:102FB0008091120490911304009711F00E9433172E
:102FC000FF91EF91BF91AF919F918F917F916F9101
:102FD0005F914F913F912F910F900FBE0F901F90D7
:102FE00018951F920F920FB60F9211242F933F93B3
:102FF0004F935F936F937F938F939F93AF93BF9301
:10300000EF93FF938091120490911304009711F0B5
:103010000E943317FF91EF91BF91AF919F918F91D4
:103020007F916F915F914F913F912F910F900FBEC4
:103030000F901F901895CF92DF92EF92FF920F930F
:103040001F93CF93DF93EC017A018B01188A1F86BF
:103050001E861D861C861B861A86198620E030E097
:103060006901CC0CDD1CC20ED31EB601660F771FA2
:10307000660F771FAB0148585F4FFA018591959114
:10308000A591B4918E159F05A007B107E9F4FB0146
:10309000E458FF4F859194919A878987FB01E25804
:1030A000FF4F859194919C878B87FB01E058FF4FE0
:1030B000859194919E878D87FB01EE57FF4F8591F7
:1030C0009491988B8F8706C02F5F3F4F2C3031052E
:1030D00009F0C6CF8D859E85892B09F449C04A81A8
:1030E000463108F03DC090916800483010F484E00B
:1030F00005C04E3010F082E001C081E0892B809342
:103100006800483028F4EDE6F0E0ADE6B0E00BC032
:103110004E3028F0ECE6F0E0ACE6B0E004C0EBE6C0
:10312000F0E0ABE6B0E05081483040F481E090E060
:1031300002C0880F991F4A95E2F710C0242F30E093
:103140004E3018F42850304002C02E50304081E0FC
:1031500090E002C0880F991F2A95E2F7852B8C9387
:103160008F85988920E001972FEF8F3F9207D9F73D
:1031700080911204909113048C179D0781F0898926
:103180008E7F898B9FB7F8941092540480915404D9
:1031900080935504D0931304C09312049FBFDF9112
:1031A000CF911F910F91FF90EF90DF90CF900895F6
:1031B000FC014281463180F5483028F4EDE6F0E02C
:1031C000ADE6B0E00BC04E3028F4EBE6F0E0ABE645
:1031D000B0E004C0ECE6F0E0ACE6B0E0508148308E
:1031E00040F481E090E002C0880F991F4A95E2F711
:1031F00010C0242F30E04E3018F42850304002C068
:103200002E50304081E090E002C0880F991F2A952F
:10321000E2F7809585238C930895FC0181E591E088
:1032200091838083CF010E94D8180895FC0180917A
:103230001204909113048E179F0789F081898E7F65
:10324000818B9FB7F894109254048091540480931A
:103250005504F0931304E09312049FBF06C09091AD
:10326000550480915404981719F42FEF3FEF0FC0C5
:10327000E0915504F0E0EC5EFB4F20818091550415
:1032800090E001968F7390708093550430E0C901EF
:103290000895FC0180911204909113048E179F07EA
:1032A00091F081898E7F818B9FB7F894109254049E
:1032B0008091540480935504F0931304E093120416
:1032C0009FBF80E00895809154042091550490E0C0
:1032D000805C9F4F821B910960E470E00E94F61EA3
:1032E00008950F931F93DC011F968D919C91509729
:1032F000892B09F4B6C080911204909113048A17A7
:103300009B07A1F051968C9151978E7F51968C938B
:1033100051979FB7F894109254048091540480936D
:103320005504B0931304A09312049FBF0FB7F894F1
:1033300051968C9151971796ED91FC91189716968E
:103340002C91169781FF88C08081822B80831F96E5
:103350008D919C915097059620E001972FEF8F3F1C
:103360009207D9F751968C91519781FF35C031E082
:1033700040E050E070E010E0832F90E08623972338
:103380001796ED91FC91189716962C911697892B0C
:1033900029F0808120952823208303C08081822BFF
:1033A00080831F968D919C915097212F01972FEF2D
:1033B0008F3F9207D9F7330F4F5F5F4F483051056A
:1033C000D9F61796ED91FC911897908116968C91ED
:1033D00016978095892333C031E040E050E070E0DB
:1033E00010E0832F90E0862397231796ED91FC91B0
:1033F000189716962C911697892B21F08081822B95
:10340000808304C080812095282320831F968D917E
:103410009C915097212F01972FEF8F3F9207D9F75B
:10342000330F4F5F5F4F48305105D9F61796ED9136
:10343000FC911897808116969C911697892B808312
:103440000FBF1F968D919C91509720E001972FEF11
:103450008F3F9207D9F705C08081209528232083CC
:1034600076CF1F910F91089520911204309113048B
:103470002817390749F49FB7F894109254048091A3
:103480005404809355049FBF08951F93CF93DF93F7
:10349000EC01162F862F60E00E94A91B898981FD0F
:1034A00004C0812F61E00E94CF1B1A83212F30E0DE
:1034B000C901865C9E4FFC0184918B832A5D3E4F3F
:1034C000F9016491E62FF0E0EE0FFF1FE45EFE4F7E
:1034D000859194919D838C83DF91CF911F91089565
:1034E000FF920F931F938C01F62E862F61E00E94AE
:1034F000A91B8F2D61E00E94CF1B8F2D90E0FC0156
:10350000E65CFE4FE491D8011696EC9316978A5D1F
:103510009E4FFC016491E62FF0E0EE0FFF1FEE5E80
:10352000FE4F8591949118969C938E9317971F91B7
:103530000F91FF900895FF920F931F938C01F62E29
:1035400081E591E0F80191838083128611861486CB
:10355000138616861586108A178681892170220F98
:103560008C7F822B818BC801642F0E94701AC80146
:103570006F2D0E94451A1F910F91FF9008951F9281
:103580000F920FB60F9211242F933F938F939F9317
:10359000AF93BF9380915A0490915B04A0915C0417
:1035A000B0915D0430915E040196A11DB11D232FE1
:1035B0002D5F2D3720F02D570196A11DB11D2093B1
:1035C0005E0480935A0490935B04A0935C04B093D0
:1035D0005D048091560490915704A0915804B091D5
:1035E00059040196A11DB11D809356049093570470
:1035F000A0935804B0935904BF91AF919F918F91BC
:103600003F912F910F900FBE0F901F9018958FB77D
:10361000F89420915A0430915B0440915C045091DD
:103620005D048FBFB901CA0108959B01AC017FB74A
:10363000F8948091560490915704A0915804B09149
:10364000590466B5A89B05C06F3F19F00196A11DEE
:10365000B11D7FBFBA2FA92F982F8827860F911DE4
:10366000A11DB11D62E0880F991FAA1FBB1F6A959B
:10367000D1F7BC012DC0FFB7F8948091560490910A
:103680005704A0915804B0915904E6B5A89B05C011
:10369000EF3F19F00196A11DB11DFFBFBA2FA92F51
:1036A000982F88278E0F911DA11DB11DE2E0880F74
:1036B000991FAA1FBB1FEA95D1F7861B970B885E3F
:1036C0009340C8F2215030404040504068517C4FF8
:1036D000211531054105510571F60895789484B599
:1036E000826084BD84B5816084BD85B5826085BDFE
:1036F00085B5816085BDEEE6F0E0808181608083E4
:10370000E1E8F0E0108280818260808380818160C6
:103710008083E0E8F0E0808181608083E1EBF0E08D
:10372000808184608083E0EBF0E080818160808331
:10373000EAE7F0E08081846080838081826080831A
:103740008081816080838081806880831092C10045
:103750000895482F50E0CA01865C9E4FFC012491D9
:103760004A5D5E4FFA0184918823C1F0E82FF0E0B2
:10377000EE0FFF1FE85FFE4FA591B491662341F461
:103780009FB7F8948C91209582238C939FBF0895C6
:103790009FB7F8948C91822B8C939FBF0895482FEC
:1037A00050E0CA01825B9E4FFC012491CA01865CF5
:1037B0009E4FFC0134914A5D5E4FFA01949199232A
:1037C00009F444C0222351F1233071F0243028F44D
:1037D0002130A1F0223011F514C02630B1F027308D
:1037E000C1F02430D9F404C0809180008F7703C0E9
:1037F000809180008F7D8093800010C084B58F778A
:1038000002C084B58F7D84BD09C08091B0008F77E0
:1038100003C08091B0008F7D8093B000E92FF0E06D
:10382000EE0FFF1FEE5EFE4FA591B491662341F4AB
:103830009FB7F8948C91309583238C939FBF089504
:103840009FB7F8948C91832B8C939FBF08951F9200
:103850000F920FB60F9211242F933F934F938F9394
:103860009F93EF93FF934091C600E091DF04F091A6
:10387000E00431969F012F77307031978091E104F9
:103880009091E2042817390739F0E15AFB4F408341
:103890003093E0042093DF04FF91EF919F918F918B
:1038A0004F913F912F910F900FBE0F901F90189541
:1038B000CF93DF93EC019A01AB01E885F9852030C5
:1038C00081EE380780E0480780E0580709F449C0D6
:1038D00081E090E00A8802C0880F991F0A94E2F7FD
:1038E000808360E079E08DE390E00E942B1F2150FF
:1038F000304040405040CA01B90122E030E040E091
:1039000050E00E942B1FEC81FD813083EE81FF810E
:103910002083EA85FB85208141E050E0CA010E84C6
:1039200002C0880F991F0A94E2F7282B2083EA85AA
:10393000FB852081CA010F8402C0880F991F0A9459
:10394000E2F7282B2083EA85FB858081088802C066
:10395000440F551F0A94E2F7842B8083DF91CF91A7
:103960000895108220E130E0CECFDC011296ED9177
:10397000FC911397E058FF4F219131918081918103
:10398000281B390B2F773070C9010895DC0112967E
:10399000ED91FC911397EE57FF4F20813181929169
:1039A0008291E058F0408217930719F42FEF3FEF10
:1039B00005C0E20FF31F8081282F30E0C901089570
:1039C000DC011296ED91FC911397DF01AE57BF4FCA
:1039D0002D913C911197E058FF4F80819181E058E3
:1039E000F0408217930719F42FEF3FEF0BC0E20F5F
:1039F000F31F80812F5F3F4F2F7730702D933C93C3
:103A0000282F30E0C9010895DC011296ED91FC9158
:103A10001397EE57FF4F808191819293829308957F
:103A2000FC01A085B18521898C9190E0022E02C015
:103A3000959587950A94E2F780FFF6CF0484F58583
:103A4000E02D608308958BE591E09093E4048093EA
:103A5000E3048FE594E09093E6048093E50485EC1D
:103A600090E09093E8048093E70484EC90E09093D6
:103A7000EA048093E90480EC90E09093EC04809356
:103A8000EB0481EC90E09093EE048093ED0486ECDF
:103A900090E09093F0048093EF0484E08093F1042D
:103AA00083E08093F20487E08093F30485E08093C1
:103AB000F40481E08093F50408950E946E1B0E9437
:103AC000B7030E948D03FDCF0F931F93CF93DF9316
:103AD0008C01EB0109C02196D801ED91FC91019078
:103AE000F081E02DC801099568816623A1F7DF9177
:103AF000CF911F910F910895EF92FF920F931F9313
:103B0000CF93DF938C017B01EA010CC0D7016D914B
:103B10007D01D801ED91FC910190F081E02DC8016B
:103B200009952197209791F7DF91CF911F910F91E0
:103B3000FF90EF900895DC01ED91FC910280F381FC
:103B4000E02D099508952F923F924F925F926F92C8
:103B50007F928F929F92AF92BF92CF92DF92EF921D
:103B6000FF920F931F93DF93CF93CDB7DEB7A0974C
:103B70000FB6F894DEBF0FBECDBF1C016A017B01FA
:103B8000411551056105710549F440E350E060E0DD
:103B900070E020E030E00E943D1E56C08824992449
:103BA0005401422E55246624772401E010E00C0FC6
:103BB0001D1F080D191DC701B601A30192010E9426
:103BC000091FF80160830894811C911CA11CB11C81
:103BD000C701B601A30192010E94091FC901DA01C0
:103BE0006C017D01C114D104E104F104F1F681E01E
:103BF000E82EF12CEC0EFD1EE80CF91C3E01089499
:103C0000611C711CD501C4010197A109B1096C01A6
:103C1000C818D90816C0F601EE0DFF1D40814A30C4
:103C200010F4405D01C0495C552747FD5095652F54
:103C3000752FC10120E030E00E943D1E0894E1088C
:103C4000F1086E147F0439F7A0960FB6F894DEBF22
:103C50000FBECDBFCF91DF911F910F91FF90EF90DD
:103C6000DF90CF90BF90AF909F908F907F906F909C
:103C70005F904F903F902F900895EF92FF920F9397
:103C80001F93CF93DF93EC017A018B01211531054E
:103C900041F4E881F9810190F081E02D642F0995CC
:103CA0001BC02A303105B1F477FF10C04DE250E05F
:103CB00060E070E020E030E00E943D1E109500952D
:103CC000F094E094E11CF11C011D111DCE01B8011E
:103CD000A7012AE00E94A31DDF91CF911F910F91B0
:103CE000FF90EF900895EF92FF920F931F937B0147
:103CF0009A010027F7FC0095102FB801A7010E9438
:103D00003D1E1F910F91FF90EF900895EF92FF924B
:103D10000F931F93E62E9A01FF24E7FCF0940F2DDA
:103D20001F2DB801A7010E943D1E1F910F91FF900A
:103D3000EF9008950F931F938C014DE050E060E0E9
:103D400070E020E030E00E943D1EC8014AE050E0F3
:103D500060E070E020E030E00E943D1E1F910F9176
:103D600008950F931F938C010E949B1DC8010E9410
:103D70009A1E1F910F910895CF92DF92EF92FF92BA
:103D80000F931F938C016B019A01EE24D7FCE094F2
:103D9000FE2CB701A6010E943D1EC8010E949A1E7A
:103DA0001F910F91FF90EF90DF90CF900895629F49
:103DB000D001739FF001829FE00DF11D649FE00D23
:103DC000F11D929FF00D839FF00D749FF00D659F84
:103DD000F00D9927729FB00DE11DF91F639FB00D83
:103DE000E11DF91FBD01CF011124089597FB092E94
:103DF00007260AD077FD04D049D006D000201AF457
:103E0000709561957F4F0895F6F7909581959F4F36
:103E10000895A1E21A2EAA1BBB1BFD010DC0AA1F0B
:103E2000BB1FEE1FFF1FA217B307E407F50720F023
:103E3000A21BB30BE40BF50B661F771F881F991F9E
:103E40001A9469F760957095809590959B01AC01E7
:103E5000BD01CF01089597FB092E05260ED057FD11
:103E600004D0D7DF0AD0001C38F450954095309527
:103E700021953F4F4F4F5F4F0895F6F790958095EE
:103E8000709561957F4F8F4F9F4F0895AA1BBB1B65
:103E900051E107C0AA1FBB1FA617B70710F0A61B4A
:103EA000B70B881F991F5A95A9F780959095BC016B
:103EB000CD010895EE0FFF1F0590F491E02D0994B8
:103EC0002F923F924F925F926F927F928F929F922A
:103ED000AF92BF92CF92DF92EF92FF920F931F9318
:103EE000CF93DF93CDB7DEB7CA1BDB0B0FB6F894C9
:103EF000DEBF0FBECDBF09942A88398848885F8409
:103F00006E847D848C849B84AA84B984C884DF8079
:103F1000EE80FD800C811B81AA81B981CE0FD11D5D
:103F20000FB6F894DEBF0FBECDBFED01089511E0CE
:103F3000C8E6D1E004C0FE010E945C1F2296CA368A
:103F4000D107C9F7F894FFCF53697A653A20002F5B
:103F500074657374253034642E6A70670000466996
:103F60006C654E616D6574203A2000446F6E652E5D
:103F700000FFFFFFFF5600320C000A0000000000A7
:103F800000A00F950F7C1D5600360100560026003C
:103F90005600340100000000007119641D7C1D00F2
:103FA000000000101D641D7C1DB51CE01CC61C0417
:103FB0001D00FFFFFFFFFFFFFFFFFFFFFFFFFFFFF2
:103FC000FFFFFFFFFFFFFFFFFFFFFFFFFFFFFFFF01
:103FD000FFFFFFFFFFFFFFFFFFFFFFFFFFFFFFFFF1
:103FE000FFFFFFFFFFFFFFFFFFFFFFFFFFFFFFFFE1
:103FF000FFFFFFFFFFFFFFFFFFFFFFFFFFFFFFFFD1
:10400000C8F2215030404040504068517C4F21154B
:1040100031054105510571F60895789484B58260A3
:1040200084BD84B5816084BD85B5826085BD85B55C
:10403000816085BDEEE6F0E0808181608083E1E80B
:10404000F0E0108280818260808380818160808343
:10405000E0E8F0E0808181608083E1EBF0E0808146
:1040600084608083E0EBF0E0808181608083EAE718
:10407000F0E08081846080838081826080838081A1
:10408000816080838081806880831092C100089560
:10409000CF93DF93482F50E0CA018A5B9E4FFC010B
:1040A00034914E5C5E4FFA018491882369F190E06F
:1040B000880F991FFC01EC5EFE4FA591B491FC01A5
:1040C000E25EFE4FC591D491662351F42FB7F89468
:1040D0008C91932F909589238C93888189230BC091
:1040E000623061F42FB7F8948C91932F90958923C7
:1040F0008C938881832B88832FBF06C09FB7F89449
:104100008C91832B8C939FBFDF91CF910895482F83
:1041100050E0CA01865A9E4FFC012491CA018A5B75
:104120009E4FFC0194914E5C5E4FFA013491332313
:1041300009F440C0222351F1233071F0243028F4D7
:104140002130A1F0223011F514C02630B1F0273013
:10415000C1F02430D9F404C0809180008F7703C06F
:10416000809180008F7D8093800010C084B58F7710
:1041700002C084B58F7D84BD09C08091B0008F7767
:1041800003C08091B0008F7D8093B000E32FF0E0FA
:10419000EE0FFF1FE25EFE4FA591B4912FB7F8948A
:1041A000662321F48C919095892302C08C91892BF0
:1041B0008C932FBF089508951F920F920FB60F9200
:1041C00011242F933F934F938F939F93EF93FF93DC
:1041D0008091C00082FD1DC04091C6002091EA047C
:1041E0003091EB042F5F3F4F2F7330708091EC04C0
:1041F0009091ED042817390771F0E091EA04F091ED
:10420000EB04E655FB4F40833093EB042093EA0424
:1042100002C08091C600FF91EF919F918F914F91C5
:104220003F912F910F900FBE0F901F901895E09126
:104230003E05F0913F05E05CFF4F81919191208117
:104240003181821B930B8F739070892B11F00E9428
:10425000DB2008951F920F920FB60F9211242F9317
:104260003F938F939F93EF93FF9320912E0530916F
:104270002F0580913005909131052817390731F4C9
:104280008091C1008F7D8093C10014C0E091300502
:10429000F0913105E251FB4F2081809130059091E2
:1042A000310501968F73907090933105809330059E
:1042B0002093C600FF91EF919F918F913F912F9195
:1042C0000F900FBE0F901F901895AF92BF92DF9284
:1042D000EF92FF920F931F93CF93DF93EC017A013C
:1042E0008B01DD24403081EE580780E0680780E0D4
:1042F000780711F0DD24D39491E0A92EB12CEC893C
:10430000FD89DD2069F0C50108A002C0880F991F52
:104310000A94E2F7808360E079E08DE390E005C0E5
:10432000108260E874E88EE190E0A80197010E9495
:10433000972421503040404050405695479537953E
:10434000279580E12030380720F0DD2011F0DD24B2
:10435000D6CFE889F9893083EA89FB89208319A2BD
:10436000EE89FF89408121E030E0C9010C8C02C058
:10437000880F991F0A94E2F7482B4083EE89FF8942
:104380004081C9010D8C02C0880F991F0A94E2F781
:10439000482B4083EE89FF894081C9010E8C02C001
:1043A000880F991F0A94E2F7482B4083EE89FF8912
:1043B00080810F8C02C0220F331F0A94E2F72095F0
:1043C00028232083DF91CF911F910F91FF90EF90D1
:1043D000DF90BF90AF900895DC011C96ED91FC91A9
:1043E0001D97E05CFF4F2191319180819181281BC5
:1043F000390B2F733070C9010895DC011C96ED91C3
:10440000FC911D97E05CFF4F20813181E054F0402A
:10441000DF01AE5BBF4F8D919C9111972817390733
:1044200019F42FEF3FEF07C08D919C91E80FF91F12
:104430008081282F30E0C9010895DC011C96ED91A0
:10444000FC911D97E05CFF4F20813181E054F040EA
:10445000DF01AE5BBF4F8D919C91119728173907F3
:1044600019F42FEF3FEF10C08D919C911197E80F39
:10447000F91F20818D919C91119701968F739070F7
:1044800011969C938E9330E0C9010895DC019196BA
:104490008C919197882339F05496ED91FC91559722
:1044A000808186FFF9CF91961C920895CF93DF9378
:1044B000EC01EE85FF85E05CFF4F20813181E05407
:1044C000F0402F5F3F4F2F733070DF01AE5BBF4F67
:1044D0008D919C91119728173907D1F3E05CFF4F1C
:1044E00080819181E054F040E80FF91F6083EE85F0
:1044F000FF85E05CFF4F31832083EE89FF892081B7
:1045000081E090E00F8C02C0880F991F0A94E2F7B7
:10451000282B208381E089A3EC89FD898081806438
:10452000808381E090E0DF91CF910895109235056E
:104530001092340588EE93E0A0E0B0E08093360559
:1045400090933705A0933805B093390581EE91E03B
:1045500090933305809332058AEA94E090933F0567
:1045600080933E058EEE94E0909341058093400544
:1045700085EC90E0909343058093420584EC90E0B5
:10458000909345058093440580EC90E09093470517
:104590008093460581EC90E090934905809348050F
:1045A00082EC90E090934B0580934A0586EC90E076
:1045B00090934D0580934C0584E080934E0583E0F5
:1045C00080934F0587E08093500585E080935105E7
:1045D00081E0809352050895CF93DF930E940D20D0
:1045E0000E942C06C7E1D1E20E941E062097E1F34B
:1045F0000E941721F9CFCF92DF92EF92FF920F9393
:104600001F93CF93DF937C016B018A01C0E0D0E060
:104610000FC0D6016D916D01D701ED91FC91019014
:10462000F081E02DC7010995C80FD91F0150104036
:104630000115110571F7CE01DF91CF911F910F91F7
:10464000FF90EF90DF90CF900895DC01ED91FC9109
:104650000190F081E02D09950895EF92FF920F935C
:104660001F938C01DC01ED91FC910190F081E02D14
:104670006DE009957C01D801ED91FC910190F081EC
:10468000E02DC8016AE009959C012E0D3F1DC9016E
:104690001F910F91FF90EF900895CF93DF93EC015E
:1046A0006115710519F420E030E00FC0DB010D90B9
:1046B0000020E9F71197A61BB70BE881F98102806A
:1046C000F381E02DAD0109959C01C901DF91CF91E6
:1046D00008954F925F927F928F929F92AF92BF9276
:1046E000CF92DF92EF92FF920F931F93DF93CF93BE
:1046F000CDB7DEB7A1970FB6F894DEBF0FBECDBF22
:104700002C01742ECB01223008F42AE019A231E2E8
:10471000C32ED12CCC0EDD1E822E9924AA24BB24BC
:10472000672D752FA50194010E94972479018A01B4
:10473000C801B701A50194010E946524472D461BBD
:104740000894C108D1084A3014F4405D01C0495CA6
:10475000F6014083E114F1040105110521F07E2CDE
:104760005F2DC801DDCFC201B6010E944D23A19685
:104770000FB6F894DEBF0FBECDBFCF91DF911F9172
:104780000F91FF90EF90DF90CF90BF90AF909F90F0
:104790008F907F905F904F900895DC012115310537
:1047A00041F4ED91FC910190F081E02D642F099589
:1047B00008950E9469230895EF92FF920F931F932B
:1047C0007C010E94CD238C01C7010E942D239C01F6
:1047D000200F311FC9011F910F91FF90EF90089595
:1047E000CF92DF92EF92FF920F931F93CF93DF93BD
:1047F000EC016A017B012115310541F4E881F98161
:104800000190F081E02D642F09951FC02A303105F9
:10481000D1F477FF17C0E881F9810190F081E02D94
:104820006DE209958C0144275527BA014C195D09A1
:104830006E097F09CE012AE00E9469239801280FA2
:10484000391F04C02AE00E9469239C01C901DF913D
:10485000CF911F910F91FF90EF90DF90CF9008952F
:10486000CF92DF92EF92FF920F931F936C017B0127
:104870009A010027F7FC0095102FB801A7010E94AC
:10488000F0238C01C6010E942D23080F191FC801B7
:104890001F910F91FF90EF90DF90CF9008950E94AD
:1048A0004D230895EF92FF920F931F937C010E9476
:1048B0004D238C01C7010E942D23080F191FC80129
:1048C0001F910F91FF90EF900895629FD001739F09
:1048D000F001829FE00DF11D649FE00DF11D929F9C
:1048E000F00D839FF00D749FF00D659FF00D9927DB
:1048F000729FB00DE11DF91F639FB00DE11DF91FFF
:10490000BD01CF011124089597FB092E07260AD077
:1049100077FD04D02ED006D000201AF47095619552
:104920007F4F0895F6F7909581959F4F0895A1E2E6
:104930001A2EAA1BBB1BFD010DC0AA1FBB1FEE1F19
:10494000FF1FA217B307E407F50720F0A21BB30B64
:10495000E40BF50B661F771F881F991F1A9469F7E0
:1049600060957095809590959B01AC01BD01CF013C
:104970000895AA1BBB1B51E107C0AA1FBB1FA617A6
:10498000B70710F0A61BB70B881F991F5A95A9F7F8
:1049900080959095BC01CD010895EE0FFF1F059005
:1049A000F491E02D09942F923F924F925F926F9273
:1049B0007F928F929F92AF92BF92CF92DF92EF92AF
:1049C000FF920F931F93CF93DF93CDB7DEB7CA1B30
:1049D000DB0B0FB6F894DEBF0FBECDBF09942A885B
:1049E000398848885F846E847D848C849B84AA8403
:1049F000B984C884DF80EE80FD800C811B81AA8190
:104A0000B981CE0FD11D0FB6F894DEBF0FBECDBF5A
:104A1000ED01089511E0C6E7D1E004C0FE010E9457
:104A2000CF242296C837D107C9F7F894FFCF537423
:104A3000617274203A2054616B65416E64536176F3
:104A400065506963747572650074657374253034DC
:104A5000642E6A7067004661696C6564203A205371
:104A6000442E6F70656E28290046696C654E616D35
:104A70006574203A20005069637475726553697AD1
:104A800065203A2000456E64203A2054616B6541F0
:104A90006E645361766550696374757265007374F2
:104AA0006172742E004661696C6564203A2053443B
:104AB0002E626567696E282920002F005600320C8F
:104AC000000A00000100FFFFFFFF80005805000002
:104AD00056003601035600360100560026005600E7
:104AE000340100000000008E08FB227408530851B6
:104AF000094009000000000A0AC70A220A6D0A8B51
:104B00000A650A00000000E817FB220000000056BA
:104B100022FB22EC211D22FD21462200FFFFFFFF88
:104B2000FFFFFFFFFFFFFFFFFFFFFFFFFFFFFFFF95
:104B3000FFFFFFFFFFFFFFFFFFFFFFFFFFFFFFFF85
:104B4000FFFFFFFFFFFFFFFFFFFFFFFFFFFFFFFF75
:104B5000FFFFFFFFFFFFFFFFFFFFFFFFFFFFFFFF65
:107800000C94343C0C94513C0C94513C0C94513CE1
:107810000C94513C0C94513C0C94513C0C94513CB4
:107820000C94513C0C94513C0C94513C0C94513CA4
:107830000C94513C0C94513C0C94513C0C94513C94
:107840000C94513C0C94513C0C94513C0C94513C84
:107850000C94513C0C94513C0C94513C0C94513C74
:107860000C94513C0C94513C11241FBECFEFD8E036
:10787000DEBFCDBF11E0A0E0B1E0ECE9FFE702C060
:1078800005900D92A230B107D9F712E0A2E0B1E065
:1078900001C01D92AD30B107E1F70E942D3D0C945F
:1078A000CC3F0C94003C982F959595959595959582
:1078B000905D8F708A307CF0282F295A8091C0000B
:1078C00085FFFCCF9093C6008091C00085FFFCCF60
:1078D0002093C6000895282F205DF0CF982F809127
:1078E000C00085FFFCCF9093C6000895EF92FF92F1
:1078F0000F931F93EE24FF2487018091C00087FD22
:1079000017C00894E11CF11C011D111D81E4E8164B
:1079100082E4F8068FE0080780E0180770F3E09132
:107920000401F091050109958091C00087FFE9CF1E
:107930008091C6001F910F91FF90EF9008950E94D3
:10794000763C982F8091C00085FFFCCF9093C600B5
:1079500091362CF490330CF09053892F089597555D
:10796000892F08951F930E949F3C182F0E949F3CCF
:107970001295107F810F1F9108951F93182F882350
:1079800021F00E94763C1150E1F71F9108951F935A
:10799000182F0E94763C803249F0809103018F5F5E
:1079A000809303018530C1F01F9108958091C0003C
:1079B00085FFFCCF84E18093C6008091C00085FFE5
:1079C000FCCF1093C6008091C00085FFFCCF80E102
:1079D0008093C6001F910895E0910401F091050184
:1079E00009951F9108950E94763C803241F0809164
:1079F00003018F5F80930301853081F008958091AA
:107A0000C00085FFFCCF84E18093C6008091C00058
:107A100085FFFCCF80E18093C6000895E0910401CA
:107A2000F09105010995089540E951E08823A1F0FE
:107A30002D9A28EE33E0FA013197F1F721503040CA
:107A4000D1F72D9828EE33E0FA013197F1F7215064
:107A50003040D1F7815061F708953F924F925F9285
:107A60006F927F928F929F92AF92BF92CF92DF924E
:107A7000EF92FF920F931F93CF93DF93000080E16B
:107A80008093C4001092C50088E18093C10086E015
:107A90008093C2005098589A259A81E00E94143D24
:107AA00024E1F22E9EE1E92E85E9D82E0FE0C02ECA
:107AB00010E1B12EAA24A394B1E49B2EA6E58A2E50
:107AC000F2E57F2EE0E26E2E79E4572E63E5462E36
:107AD00050E5352E0E94763C8033B1F18133B9F107
:107AE000803409F46FC0813409F476C0823409F41B
:107AF00085C0853409F488C0803531F1823521F1A3
:107B0000813511F1853509F485C0863509F48DC0BC
:107B1000843609F496C0843709F403C1853709F423
:107B200072C1863709F466C0809103018F5F80932C
:107B30000301853079F6E0910401F0910501099582
:107B40000E94763C803351F60E94F33CC3CF0E94E2
:107B5000763C803249F78091C00085FFFCCFF092DF
:107B6000C6008091C00085FFFCCF9092C600809136
:107B7000C00085FFFCCF8092C6008091C00085FFC9
:107B8000FCCF7092C6008091C00085FFFCCF609250
:107B9000C6008091C00085FFFCCF5092C600809146
:107BA000C00085FFFCCF4092C6008091C00085FFD9
:107BB000FCCF3092C6008091C00085FFFCCFB09210
:107BC000C60088CF0E94763C863808F4BDCF0E945C
:107BD000763C0E94F33C7ECF0E94763C803809F4CC
:107BE0009CC0813809F40BC1823809F43CC1883942
:107BF00009F48FC080E00E94C73C6CCF84E10E94F2
:107C0000BD3C0E94F33C66CF85E00E94BD3C0E94D3
:107C1000F33C60CF0E94763C809306010E94763C44
:107C2000809307010E94F33C55CF0E94763C80333D
:107C300009F41DC183E00E94BD3C80E00E94C73C66
:107C400049CF0E94763C809309020E94763C809343
:107C5000080280910C028E7F80930C020E94763C79
:107C6000853409F415C18091080290910902892B8D
:107C700089F000E010E00E94763CF801E85FFE4FDA
:107C800080830F5F1F4F80910802909109020817AF
:107C9000190788F30E94763C803209F045CF809125
:107CA0000C0280FF01C16091060170910701660F0F
:107CB000771F7093070160930601A0910802B091AD
:107CC00009021097C9F0E8E0F1E09B01AD014E0F09
:107CD0005F1FF999FECF32BD21BD819180BDFA9A17
:107CE000F99A2F5F3F4FE417F50799F76A0F7B1F4B
:107CF00070930701609306018091C00085FFFCCF5F
:107D0000F092C6008091C00085FFFCCFB092C60003
:107D1000E1CE83E00E94C73CDDCE82E00E94C73CFA
:107D2000D9CE0E94763C809309020E94763C8093D3
:107D300008028091060190910701880F991F909386
:107D40000701809306010E94763C853409F4A6C0A1
:107D500080910C028E7F80930C020E94763C8032D0
:107D600009F0B8CE8091C00085FFFCCFF092C6002C
:107D7000609108027091090261157105B9F140E046
:107D800050E080910C02A82FA170B82FB27011C0E2
:107D9000BB2309F45CC0E0910601F0910701319624
:107DA000F0930701E09306014F5F5F4F46175707B7
:107DB000E8F4AA2369F3F999FECF209106013091E6
:107DC000070132BD21BDF89A90B58091C00085FFB2
:107DD000FCCF9093C6002F5F3F4F30930701209355
:107DE00006014F5F5F4F4617570718F38091C00099
:107DF00085FDE5CE8091C00085FFF8CFE0CE81E023
:107E00000E94C73C67CE0E94763C803209F08CCE3F
:107E10008091C00085FFFCCFF092C6008091C00029
:107E200085FFFCCFE092C6008091C00085FFFCCFAB
:107E3000D092C6008091C00085FFFCCFC092C600E2
:107E40008091C00085FFFCCFB092C60043CEE09188
:107E50000601F091070194918091C00085FFFCCF4D
:107E60009093C6009CCF80E10E94C73C33CE0E9415
:107E7000763C0E94763C182F0E94763C112309F430
:107E800083C0113009F484C08FE00E94C73C22CE29
:107E900080910C02816080930C02E5CE80910C02EF
:107EA000816080930C0259CF809107018823880F4D
:107EB000880B8A2180930B02809106019091070123
:107EC000880F991F90930701809306018091080203
:107ED00080FF09C080910802909109020196909359
:107EE000090280930802F894F999FECF1127E091D6
:107EF0000601F0910701C8E0D1E08091080290915D
:107F00000902103091F40091570001700130D9F34B
:107F100003E000935700E89500915700017001308D
:107F2000D9F301E100935700E89509901990009169
:107F3000570001700130D9F301E000935700E89534
:107F40001395103498F011270091570001700130FB
:107F5000D9F305E000935700E895009157000170B0
:107F60000130D9F301E100935700E895329602976A
:107F700009F0C7CF103011F00296E5CF112480919F
:107F8000C00085FFB9CEBCCE8EE10E94C73CA2CD19
:107F900085E90E94C73C9ECDF894FFCF8000FFFF8B
:107FA000FFFFFFFFFFFFFFFFFFFFFFFFFFFFFFFFE1
:107FB000FFFFFFFFFFFFFFFFFFFFFFFFFFFFFFFFD1
:107FC000FFFFFFFFFFFFFFFFFFFFFFFFFFFFFFFFC1
:107FD000FFFFFFFFFFFFFFFFFFFFFFFFFFFFFFFFB1
:107FE000FFFFFFFFFFFFFFFFFFFFFFFFFFFFFFFFA1
:107FF000FFFFFFFFFFFFFFFFFFFFFFFFFFFFFFFF91
:00000001FF
